:020000040000FA
:06000000BAEF00F012004F
:020006000000F8
:08000800D9CFE6FFE1CFD9FFDB
:10001000040EE126946A956A9268090EBE6E0C0E73
:10002000BD6ECA94CA82CA90CA84CC6A010EC26EDE
:100030000E0EC16E800EC06EC282C2B2FED7C45018
:10004000DE6EDD6ADECF02F0DDCF03F002C003F02A
:10005000026A02C0DEFF03C0DDFFC350E76E000E80
:10006000DFCF02F0010EDBCF03F0E7500226000ED7
:10007000032202C0DEFF03C0DDFFDECF02F0DDCFD2
:1000800003F0D89003320232D89003320232020ECB
:1000900002C0DBFF030E03C0DBFF020EDB50CB6EA2
:1000A000C5D7040EE15C02E2E16AE552E16EE55279
:0600B000E7CFD9FF1200AA
:0A00B600060EF66E000EF76E000E47
:1000C000F86E00010900F550656F0900F550666F84
:1000D00003E1656701D03DD00900F550606F09006C
:1000E000F550616F0900F550626F09000900F55085
:1000F000E96E0900F550EA6E090009000900F550A3
:10010000636F0900F550646F09000900F6CF67F0CE
:10011000F7CF68F0F8CF69F060C0F6FF61C0F7FF75
:1001200062C0F8FF0001635302E1645307E0090075
:10013000F550EE6E6307F8E26407F9D767C0F6FF83
:1001400068C0F7FF69C0F8FF00016507000E665B35
:04015000BFD7120003
:0C015400000EF36E00EE00F0060E01D865
:100160001200EA6002D0EE6AFCD7F350E960120098
:04017000EE6AFCD760
:0C01740015EE00F025EE00F0F86A019C8A
:100180005BEC00F0C8EC00F004EC00F0FBD71200D0
:0201900012005B
:00000001FF
